:020000040000FA
:04000000BDEF05F05B
:100600000050617373776F726420656E74657265F4
:100610006400436F72726563742070617373776FE7
:10062000726400456E746572202B20746F20636CB9
:100630006F73650048656C6C6F2057656C636F6DF8
:100640006520746F0057726F6E67207061737377E7
:100650006F726400456E7465722070617373776F9A
:10066000726400446F6F72204F70656E6564004461
:100670006F6F7220636C6F736564004F75722050EA
:10068000726F6A6563740000F19E720ED36EF5ECB2
:1006900005F0000E0A6E340E0B6E060E0C6E010E87
:1006A0009DEC05F0000E0A6E7B0E0B6E060E0C6EB6
:1006B000020E9DEC05F00B0E026EB80E016E78EC8A
:1006C00005F0010E19EC06F0000E0A6E540E0B6ECA
:1006D000060E0C6E010E9DEC05F0C00E19EC06F036
:1006E000000E926E000E806E67EC04F00F6E0F50DD
:1006F0001C6E1D6A1C500CEC06F067EC04F00F6ECB
:100700000F501E6E1F6A1E500CEC06F067EC04F0D2
:100710000F6E0F50206E216A20500CEC06F067EC33
:1007200004F00F6E0F50226E236A22500CEC06F07C
:10073000010E19EC06F0000E0A6E010E0B6E060E8D
:100740000C6E010E9DEC05F0310E1C181D10D8A486
:10075000ACEF03F0AEEF03F029EF04F0320E1E18F9
:100760001F10D8A4B6EF03F0B8EF03F029EF04F0A0
:10077000330E20182110D8A4C0EF03F0C2EF03F00D
:1007800029EF04F0340E22182310D8A4CAEF03F086
:10079000CCEF03F029EF04F0000E0A6E120E0B6E80
:1007A000060E0C6E020E9DEC05F00B0E026EB80EDE
:1007B000016E78EC05F0020E896E0B0E026EB80E1B
:1007C000016E78EC05F0060E896E010E19EC06F04C
:1007D000000E0A6E630E0B6E060E0C6E010E9DEC83
:1007E00005F0000E0A6E230E0B6E060E0C6E020E46
:1007F0009DEC05F0C00E19EC06F067EC04F00F6EEE
:100800000F501A6E1B6A1A500CEC06F02B0E1A18B9
:100810001B10D8A40EEF04F010EF04F029EF04F041
:10082000010E19EC06F0000E0A6E6F0E0B6E060E2E
:100830000C6E010E9DEC05F0040E896E0B0E026E1F
:10084000B80E016E78EC05F0060E896E010E19ECFB
:1008500006F0310E1C181D10D8A431EF04F033EF50
:1008600004F051EF04F0320E1E181F10D8A43BEF15
:1008700004F03DEF04F051EF04F0330E2018211086
:10088000D8A445EF04F047EF04F051EF04F0340E24
:1008900022182310D8B44FEF04F051EF04F065EFA5
:1008A00004F0010E19EC06F0000E0A6E450E0B6EF8
:1008B000060E0C6E010E9DEC05F080800B0E026E94
:1008C000B80E016E78EC05F0809000EF00F0F00EAD
:1008D000936EF00E8A6E8150F00B466EF00E461845
:1008E000D8A475EF04F077EF04F06BEF04F08150BB
:1008F000F00B466EF00E4618D8A481EF04F083EF9B
:1009000004F06BEF04F0000E026E320E016E78EC14
:1009100005F0F00E8A6E8150F00B466EF00E461810
:10092000D8B495EF04F097EF04F08BEF04F081500A
:10093000F00B466EF00E4618D8B4A1EF04F0A3EF0A
:1009400004F08BEF04F0000E026E140E016E78ECD2
:1009500005F08150F00B466EFE0E8A6E8150F00B52
:10096000466E46C044F0F00E4618D8B4BAEF04F014
:10097000BCEF04F0CEEF04F0000E456EC3EF04F0C0
:100980008150F00B446EF00E4418D8A4CAEF04F066
:10099000CCEF04F0C0EF04F032EF05F0FD0E8A6EEC
:1009A0008150F00B466E46C044F0F00E4618D8B4A5
:1009B000DCEF04F0DEEF04F0F0EF04F0010E456E22
:1009C000E5EF04F08150F00B446EF00E4418D8A40B
:1009D000ECEF04F0EEEF04F0E2EF04F032EF05F09C
:1009E000FB0E8A6E8150F00B466E46C044F0F00E4E
:1009F0004618D8B4FEEF04F000EF05F012EF05F052
:100A0000020E456E07EF05F08150F00B446EF00EBC
:100A10004418D8A40EEF05F010EF05F004EF05F030
:100A200032EF05F0F70E8A6E8150F00B466E46C02D
:100A300044F0F00E4618D8B420EF05F022EF05F090
:100A4000ACEF04F0030E456E29EF05F08150F00B7A
:100A5000446EF00E4418D8A430EF05F032EF05F0E4
:100A600026EF05F0E00E4618D8A439EF05F03BEF6D
:100A700005F046EF05F04550040D240EF324D96E21
:100A8000000EF420DA6EDF5077EF05F0D00E461836
:100A9000D8A44DEF05F04FEF05F05AEF05F04550A3
:100AA000040D250EF324D96E000EF420DA6EDF500B
:100AB00077EF05F0B00E4618D8A461EF05F063EFAC
:100AC00005F06EEF05F04550040D260EF324D96EA7
:100AD000000EF420DA6EDF5077EF05F04550040D7C
:100AE000270EF324D96E000EF420DA6EDF501200C8
:100AF000000E046E000E036E91EF05F0000E066E00
:100B0000000E056E054A062A065009E1A50E055C91
:100B1000D8A08DEF05F08FEF05F082EF05F0034AC6
:100B2000042A0150035C02500458D8A09AEF05F043
:100B30009CEF05F07EEF05F012000D6E020E0D60C9
:100B4000A4EF05F0A6EF05F0AFEF05F00A500F0B8C
:100B500080090E6E0E5019EC06F0B6EF05F00A5043
:100B60000F0BC0090E6E0E5019EC06F00BC008F00A
:100B70000CC009F0DAEC05F012004C0EF66E0C0E0B
:100B8000F76E000EF86E00EE24F010EE18F009007B
:100B9000F5CFEEFFE550E150FAE100EE3CF00B0E30
:100BA000EE6AE806FDE1000EF86E060EF76E000133
:100BB00044EF03F0E6EF05F008C0F6FF09C0F7FFC9
:100BC0000800F5500CEC06F0084A092A08C0F6FFA8
:100BD00009C0F7FF0800F5500009D8A4F2EF05F0AE
:100BE000F4EF05F0DCEF05F01200000E026E0F0EC0
:100BF000016E78EC05F0000E946E000E956E380EC6
:100C000019EC06F0010E19EC06F00C0E19EC06F0CA
:100C1000060E19EC06F01200076E07C08BFF8C80E1
:100C20008C828C92000E026E010E016E78EC05F043
:100C30001200076E07C08BFF8C908C828C92000E86
:100C4000026E030E016E78EC05F012003738392F72
:100C5000343536783132332D20303D2B310032009F
:040C60003300340029
:020000040020DA
:08000000FFFFFFFFFFFFFFFF00
:020000040030CA
:0E000000FF021F1EFF8185FF0FC00FE00F40A3
:00000001FF
